{"contracts/Playable_Character.sol":{"PlayerLib":{"abi":[{"inputs":[{"components":[{"internalType":"int256","name":"healthPoints","type":"int256"},{"internalType":"int256","name":"energy","type":"int256"},{"internalType":"int256","name":"damage","type":"int256"},{"internalType":"int256","name":"strength","type":"int256"},{"internalType":"int256","name":"wisdom","type":"int256"},{"internalType":"int256","name":"agility","type":"int256"},{"internalType":"int256","name":"class","type":"int256"}],"internalType":"struct Playable_Character","name":"character","type":"tuple"},{"internalType":"int256","name":"hitpoints","type":"int256"}],"name":"getHealed","outputs":[{"components":[{"internalType":"int256","name":"healthPoints","type":"int256"},{"internalType":"int256","name":"energy","type":"int256"},{"internalType":"int256","name":"damage","type":"int256"},{"internalType":"int256","name":"strength","type":"int256"},{"internalType":"int256","name":"wisdom","type":"int256"},{"internalType":"int256","name":"agility","type":"int256"},{"internalType":"int256","name":"class","type":"int256"}],"internalType":"struct Playable_Character","name":"","type":"tuple"}],"stateMutability":"pure","type":"function"},{"inputs":[{"components":[{"internalType":"int256","name":"healthPoints","type":"int256"},{"internalType":"int256","name":"energy","type":"int256"},{"internalType":"int256","name":"damage","type":"int256"},{"internalType":"int256","name":"strength","type":"int256"},{"internalType":"int256","name":"wisdom","type":"int256"},{"internalType":"int256","name":"agility","type":"int256"},{"internalType":"int256","name":"class","type":"int256"}],"internalType":"struct Playable_Character","name":"character","type":"tuple"},{"internalType":"int256","name":"hitpoints","type":"int256"}],"name":"takesDamage","outputs":[{"components":[{"internalType":"int256","name":"healthPoints","type":"int256"},{"internalType":"int256","name":"energy","type":"int256"},{"internalType":"int256","name":"damage","type":"int256"},{"internalType":"int256","name":"strength","type":"int256"},{"internalType":"int256","name":"wisdom","type":"int256"},{"internalType":"int256","name":"agility","type":"int256"},{"internalType":"int256","name":"class","type":"int256"}],"internalType":"struct Playable_Character","name":"","type":"tuple"}],"stateMutability":"pure","type":"function"},{"inputs":[{"components":[{"internalType":"int256","name":"healthPoints","type":"int256"},{"internalType":"int256","name":"energy","type":"int256"},{"internalType":"int256","name":"damage","type":"int256"},{"internalType":"int256","name":"strength","type":"int256"},{"internalType":"int256","name":"wisdom","type":"int256"},{"internalType":"int256","name":"agility","type":"int256"},{"internalType":"int256","name":"class","type":"int256"}],"internalType":"struct Playable_Character","name":"character","type":"tuple"},{"internalType":"int256","name":"energy_spent","type":"int256"}],"name":"useEnergy","outputs":[{"components":[{"internalType":"int256","name":"healthPoints","type":"int256"},{"internalType":"int256","name":"energy","type":"int256"},{"internalType":"int256","name":"damage","type":"int256"},{"internalType":"int256","name":"strength","type":"int256"},{"internalType":"int256","name":"wisdom","type":"int256"},{"internalType":"int256","name":"agility","type":"int256"},{"internalType":"int256","name":"class","type":"int256"}],"internalType":"struct Playable_Character","name":"","type":"tuple"}],"stateMutability":"pure","type":"function"}],"evm":{"bytecode":{"linkReferences":{},"object":"6105de610053600b82828239805160001a607314610046577f4e487b7100000000000000000000000000000000000000000000000000000000600052600060045260246000fd5b30600052607381538281f3fe730000000000000000000000000000000000000000301460806040526004361061004b5760003560e01c8063071281e61461005057806329a0ebb8146100805780636ce06981146100b0575b600080fd5b61006a60048036038101906100659190610381565b6100e0565b604051610077919061045f565b60405180910390f35b61009a60048036038101906100959190610381565b610137565b6040516100a7919061045f565b60405180910390f35b6100ca60048036038101906100c59190610381565b610161565b6040516100d7919061045f565b60405180910390f35b6100e86101ba565b6000600584606001516100fb91906104a9565b9050828460000181815161010f9190610521565b91508181525050808460000151131561012d57808460000181815250505b8391505092915050565b61013f6101ba565b81836020018181516101519190610565565b9150818152505082905092915050565b6101696101ba565b61018082846000015161019290919063ffffffff16565b83600001818152505082905092915050565b6000828213156101a557600090506101b4565b81836101b19190610565565b90505b92915050565b6040518060e00160405280600081526020016000815260200160008152602001600081526020016000815260200160008152602001600081525090565b6000604051905090565b600080fd5b600080fd5b6000601f19601f8301169050919050565b7f4e487b7100000000000000000000000000000000000000000000000000000000600052604160045260246000fd5b6102548261020b565b810181811067ffffffffffffffff821117156102735761027261021c565b5b80604052505050565b60006102866101f7565b9050610292828261024b565b919050565b6000819050919050565b6102aa81610297565b81146102b557600080fd5b50565b6000813590506102c7816102a1565b92915050565b600060e082840312156102e3576102e2610206565b5b6102ed60e061027c565b905060006102fd848285016102b8565b6000830152506020610311848285016102b8565b6020830152506040610325848285016102b8565b6040830152506060610339848285016102b8565b606083015250608061034d848285016102b8565b60808301525060a0610361848285016102b8565b60a08301525060c0610375848285016102b8565b60c08301525092915050565b600080610100838503121561039957610398610201565b5b60006103a7858286016102cd565b92505060e06103b8858286016102b8565b9150509250929050565b6103cb81610297565b82525050565b60e0820160008201516103e760008501826103c2565b5060208201516103fa60208501826103c2565b50604082015161040d60408501826103c2565b50606082015161042060608501826103c2565b50608082015161043360808501826103c2565b5060a082015161044660a08501826103c2565b5060c082015161045960c08501826103c2565b50505050565b600060e08201905061047460008301846103d1565b92915050565b7f4e487b7100000000000000000000000000000000000000000000000000000000600052601160045260246000fd5b60006104b482610297565b91506104bf83610297565b92508282026104cd81610297565b91507f800000000000000000000000000000000000000000000000000000000000000084146000841216156105055761050461047a565b5b828205841483151761051a5761051961047a565b5b5092915050565b600061052c82610297565b915061053783610297565b92508282019050828112156000831216838212600084121516171561055f5761055e61047a565b5b92915050565b600061057082610297565b915061057b83610297565b92508282039050818112600084121682821360008512151617156105a2576105a161047a565b5b9291505056fea264697066735822122068a2fba9251ef3a0fdaa68b831dd57a86f869f5e638af756c8c1cca0048a86fd64736f6c63430008130033","opcodes":"PUSH2 0x5DE PUSH2 0x53 PUSH1 0xB DUP3 DUP3 DUP3 CODECOPY DUP1 MLOAD PUSH1 0x0 BYTE PUSH1 0x73 EQ PUSH2 0x46 JUMPI PUSH32 0x4E487B7100000000000000000000000000000000000000000000000000000000 PUSH1 0x0 MSTORE PUSH1 0x0 PUSH1 0x4 MSTORE PUSH1 0x24 PUSH1 0x0 REVERT JUMPDEST ADDRESS PUSH1 0x0 MSTORE PUSH1 0x73 DUP2 MSTORE8 DUP3 DUP2 RETURN INVALID PUSH20 0x0 ADDRESS EQ PUSH1 0x80 PUSH1 0x40 MSTORE PUSH1 0x4 CALLDATASIZE LT PUSH2 0x4B JUMPI PUSH1 0x0 CALLDATALOAD PUSH1 0xE0 SHR DUP1 PUSH4 0x71281E6 EQ PUSH2 0x50 JUMPI DUP1 PUSH4 0x29A0EBB8 EQ PUSH2 0x80 JUMPI DUP1 PUSH4 0x6CE06981 EQ PUSH2 0xB0 JUMPI JUMPDEST PUSH1 0x0 DUP1 REVERT JUMPDEST PUSH2 0x6A PUSH1 0x4 DUP1 CALLDATASIZE SUB DUP2 ADD SWAP1 PUSH2 0x65 SWAP2 SWAP1 PUSH2 0x381 JUMP JUMPDEST PUSH2 0xE0 JUMP JUMPDEST PUSH1 0x40 MLOAD PUSH2 0x77 SWAP2 SWAP1 PUSH2 0x45F JUMP JUMPDEST PUSH1 0x40 MLOAD DUP1 SWAP2 SUB SWAP1 RETURN JUMPDEST PUSH2 0x9A PUSH1 0x4 DUP1 CALLDATASIZE SUB DUP2 ADD SWAP1 PUSH2 0x95 SWAP2 SWAP1 PUSH2 0x381 JUMP JUMPDEST PUSH2 0x137 JUMP JUMPDEST PUSH1 0x40 MLOAD PUSH2 0xA7 SWAP2 SWAP1 PUSH2 0x45F JUMP JUMPDEST PUSH1 0x40 MLOAD DUP1 SWAP2 SUB SWAP1 RETURN JUMPDEST PUSH2 0xCA PUSH1 0x4 DUP1 CALLDATASIZE SUB DUP2 ADD SWAP1 PUSH2 0xC5 SWAP2 SWAP1 PUSH2 0x381 JUMP JUMPDEST PUSH2 0x161 JUMP JUMPDEST PUSH1 0x40 MLOAD PUSH2 0xD7 SWAP2 SWAP1 PUSH2 0x45F JUMP JUMPDEST PUSH1 0x40 MLOAD DUP1 SWAP2 SUB SWAP1 RETURN JUMPDEST PUSH2 0xE8 PUSH2 0x1BA JUMP JUMPDEST PUSH1 0x0 PUSH1 0x5 DUP5 PUSH1 0x60 ADD MLOAD PUSH2 0xFB SWAP2 SWAP1 PUSH2 0x4A9 JUMP JUMPDEST SWAP1 POP DUP3 DUP5 PUSH1 0x0 ADD DUP2 DUP2 MLOAD PUSH2 0x10F SWAP2 SWAP1 PUSH2 0x521 JUMP JUMPDEST SWAP2 POP DUP2 DUP2 MSTORE POP POP DUP1 DUP5 PUSH1 0x0 ADD MLOAD SGT ISZERO PUSH2 0x12D JUMPI DUP1 DUP5 PUSH1 0x0 ADD DUP2 DUP2 MSTORE POP POP JUMPDEST DUP4 SWAP2 POP POP SWAP3 SWAP2 POP POP JUMP JUMPDEST PUSH2 0x13F PUSH2 0x1BA JUMP JUMPDEST DUP2 DUP4 PUSH1 0x20 ADD DUP2 DUP2 MLOAD PUSH2 0x151 SWAP2 SWAP1 PUSH2 0x565 JUMP JUMPDEST SWAP2 POP DUP2 DUP2 MSTORE POP POP DUP3 SWAP1 POP SWAP3 SWAP2 POP POP JUMP JUMPDEST PUSH2 0x169 PUSH2 0x1BA JUMP JUMPDEST PUSH2 0x180 DUP3 DUP5 PUSH1 0x0 ADD MLOAD PUSH2 0x192 SWAP1 SWAP2 SWAP1 PUSH4 0xFFFFFFFF AND JUMP JUMPDEST DUP4 PUSH1 0x0 ADD DUP2 DUP2 MSTORE POP POP DUP3 SWAP1 POP SWAP3 SWAP2 POP POP JUMP JUMPDEST PUSH1 0x0 DUP3 DUP3 SGT ISZERO PUSH2 0x1A5 JUMPI PUSH1 0x0 SWAP1 POP PUSH2 0x1B4 JUMP JUMPDEST DUP2 DUP4 PUSH2 0x1B1 SWAP2 SWAP1 PUSH2 0x565 JUMP JUMPDEST SWAP1 POP JUMPDEST SWAP3 SWAP2 POP POP JUMP JUMPDEST PUSH1 0x40 MLOAD DUP1 PUSH1 0xE0 ADD PUSH1 0x40 MSTORE DUP1 PUSH1 0x0 DUP2 MSTORE PUSH1 0x20 ADD PUSH1 0x0 DUP2 MSTORE PUSH1 0x20 ADD PUSH1 0x0 DUP2 MSTORE PUSH1 0x20 ADD PUSH1 0x0 DUP2 MSTORE PUSH1 0x20 ADD PUSH1 0x0 DUP2 MSTORE PUSH1 0x20 ADD PUSH1 0x0 DUP2 MSTORE PUSH1 0x20 ADD PUSH1 0x0 DUP2 MSTORE POP SWAP1 JUMP JUMPDEST PUSH1 0x0 PUSH1 0x40 MLOAD SWAP1 POP SWAP1 JUMP JUMPDEST PUSH1 0x0 DUP1 REVERT JUMPDEST PUSH1 0x0 DUP1 REVERT JUMPDEST PUSH1 0x0 PUSH1 0x1F NOT PUSH1 0x1F DUP4 ADD AND SWAP1 POP SWAP2 SWAP1 POP JUMP JUMPDEST PUSH32 0x4E487B7100000000000000000000000000000000000000000000000000000000 PUSH1 0x0 MSTORE PUSH1 0x41 PUSH1 0x4 MSTORE PUSH1 0x24 PUSH1 0x0 REVERT JUMPDEST PUSH2 0x254 DUP3 PUSH2 0x20B JUMP JUMPDEST DUP2 ADD DUP2 DUP2 LT PUSH8 0xFFFFFFFFFFFFFFFF DUP3 GT OR ISZERO PUSH2 0x273 JUMPI PUSH2 0x272 PUSH2 0x21C JUMP JUMPDEST JUMPDEST DUP1 PUSH1 0x40 MSTORE POP POP POP JUMP JUMPDEST PUSH1 0x0 PUSH2 0x286 PUSH2 0x1F7 JUMP JUMPDEST SWAP1 POP PUSH2 0x292 DUP3 DUP3 PUSH2 0x24B JUMP JUMPDEST SWAP2 SWAP1 POP JUMP JUMPDEST PUSH1 0x0 DUP2 SWAP1 POP SWAP2 SWAP1 POP JUMP JUMPDEST PUSH2 0x2AA DUP2 PUSH2 0x297 JUMP JUMPDEST DUP2 EQ PUSH2 0x2B5 JUMPI PUSH1 0x0 DUP1 REVERT JUMPDEST POP JUMP JUMPDEST PUSH1 0x0 DUP2 CALLDATALOAD SWAP1 POP PUSH2 0x2C7 DUP2 PUSH2 0x2A1 JUMP JUMPDEST SWAP3 SWAP2 POP POP JUMP JUMPDEST PUSH1 0x0 PUSH1 0xE0 DUP3 DUP5 SUB SLT ISZERO PUSH2 0x2E3 JUMPI PUSH2 0x2E2 PUSH2 0x206 JUMP JUMPDEST JUMPDEST PUSH2 0x2ED PUSH1 0xE0 PUSH2 0x27C JUMP JUMPDEST SWAP1 POP PUSH1 0x0 PUSH2 0x2FD DUP5 DUP3 DUP6 ADD PUSH2 0x2B8 JUMP JUMPDEST PUSH1 0x0 DUP4 ADD MSTORE POP PUSH1 0x20 PUSH2 0x311 DUP5 DUP3 DUP6 ADD PUSH2 0x2B8 JUMP JUMPDEST PUSH1 0x20 DUP4 ADD MSTORE POP PUSH1 0x40 PUSH2 0x325 DUP5 DUP3 DUP6 ADD PUSH2 0x2B8 JUMP JUMPDEST PUSH1 0x40 DUP4 ADD MSTORE POP PUSH1 0x60 PUSH2 0x339 DUP5 DUP3 DUP6 ADD PUSH2 0x2B8 JUMP JUMPDEST PUSH1 0x60 DUP4 ADD MSTORE POP PUSH1 0x80 PUSH2 0x34D DUP5 DUP3 DUP6 ADD PUSH2 0x2B8 JUMP JUMPDEST PUSH1 0x80 DUP4 ADD MSTORE POP PUSH1 0xA0 PUSH2 0x361 DUP5 DUP3 DUP6 ADD PUSH2 0x2B8 JUMP JUMPDEST PUSH1 0xA0 DUP4 ADD MSTORE POP PUSH1 0xC0 PUSH2 0x375 DUP5 DUP3 DUP6 ADD PUSH2 0x2B8 JUMP JUMPDEST PUSH1 0xC0 DUP4 ADD MSTORE POP SWAP3 SWAP2 POP POP JUMP JUMPDEST PUSH1 0x0 DUP1 PUSH2 0x100 DUP4 DUP6 SUB SLT ISZERO PUSH2 0x399 JUMPI PUSH2 0x398 PUSH2 0x201 JUMP JUMPDEST JUMPDEST PUSH1 0x0 PUSH2 0x3A7 DUP6 DUP3 DUP7 ADD PUSH2 0x2CD JUMP JUMPDEST SWAP3 POP POP PUSH1 0xE0 PUSH2 0x3B8 DUP6 DUP3 DUP7 ADD PUSH2 0x2B8 JUMP JUMPDEST SWAP2 POP POP SWAP3 POP SWAP3 SWAP1 POP JUMP JUMPDEST PUSH2 0x3CB DUP2 PUSH2 0x297 JUMP JUMPDEST DUP3 MSTORE POP POP JUMP JUMPDEST PUSH1 0xE0 DUP3 ADD PUSH1 0x0 DUP3 ADD MLOAD PUSH2 0x3E7 PUSH1 0x0 DUP6 ADD DUP3 PUSH2 0x3C2 JUMP JUMPDEST POP PUSH1 0x20 DUP3 ADD MLOAD PUSH2 0x3FA PUSH1 0x20 DUP6 ADD DUP3 PUSH2 0x3C2 JUMP JUMPDEST POP PUSH1 0x40 DUP3 ADD MLOAD PUSH2 0x40D PUSH1 0x40 DUP6 ADD DUP3 PUSH2 0x3C2 JUMP JUMPDEST POP PUSH1 0x60 DUP3 ADD MLOAD PUSH2 0x420 PUSH1 0x60 DUP6 ADD DUP3 PUSH2 0x3C2 JUMP JUMPDEST POP PUSH1 0x80 DUP3 ADD MLOAD PUSH2 0x433 PUSH1 0x80 DUP6 ADD DUP3 PUSH2 0x3C2 JUMP JUMPDEST POP PUSH1 0xA0 DUP3 ADD MLOAD PUSH2 0x446 PUSH1 0xA0 DUP6 ADD DUP3 PUSH2 0x3C2 JUMP JUMPDEST POP PUSH1 0xC0 DUP3 ADD MLOAD PUSH2 0x459 PUSH1 0xC0 DUP6 ADD DUP3 PUSH2 0x3C2 JUMP JUMPDEST POP POP POP POP JUMP JUMPDEST PUSH1 0x0 PUSH1 0xE0 DUP3 ADD SWAP1 POP PUSH2 0x474 PUSH1 0x0 DUP4 ADD DUP5 PUSH2 0x3D1 JUMP JUMPDEST SWAP3 SWAP2 POP POP JUMP JUMPDEST PUSH32 0x4E487B7100000000000000000000000000000000000000000000000000000000 PUSH1 0x0 MSTORE PUSH1 0x11 PUSH1 0x4 MSTORE PUSH1 0x24 PUSH1 0x0 REVERT JUMPDEST PUSH1 0x0 PUSH2 0x4B4 DUP3 PUSH2 0x297 JUMP JUMPDEST SWAP2 POP PUSH2 0x4BF DUP4 PUSH2 0x297 JUMP JUMPDEST SWAP3 POP DUP3 DUP3 MUL PUSH2 0x4CD DUP2 PUSH2 0x297 JUMP JUMPDEST SWAP2 POP PUSH32 0x8000000000000000000000000000000000000000000000000000000000000000 DUP5 EQ PUSH1 0x0 DUP5 SLT AND ISZERO PUSH2 0x505 JUMPI PUSH2 0x504 PUSH2 0x47A JUMP JUMPDEST JUMPDEST DUP3 DUP3 SDIV DUP5 EQ DUP4 ISZERO OR PUSH2 0x51A JUMPI PUSH2 0x519 PUSH2 0x47A JUMP JUMPDEST JUMPDEST POP SWAP3 SWAP2 POP POP JUMP JUMPDEST PUSH1 0x0 PUSH2 0x52C DUP3 PUSH2 0x297 JUMP JUMPDEST SWAP2 POP PUSH2 0x537 DUP4 PUSH2 0x297 JUMP JUMPDEST SWAP3 POP DUP3 DUP3 ADD SWAP1 POP DUP3 DUP2 SLT ISZERO PUSH1 0x0 DUP4 SLT AND DUP4 DUP3 SLT PUSH1 0x0 DUP5 SLT ISZERO AND OR ISZERO PUSH2 0x55F JUMPI PUSH2 0x55E PUSH2 0x47A JUMP JUMPDEST JUMPDEST SWAP3 SWAP2 POP POP JUMP JUMPDEST PUSH1 0x0 PUSH2 0x570 DUP3 PUSH2 0x297 JUMP JUMPDEST SWAP2 POP PUSH2 0x57B DUP4 PUSH2 0x297 JUMP JUMPDEST SWAP3 POP DUP3 DUP3 SUB SWAP1 POP DUP2 DUP2 SLT PUSH1 0x0 DUP5 SLT AND DUP3 DUP3 SGT PUSH1 0x0 DUP6 SLT ISZERO AND OR ISZERO PUSH2 0x5A2 JUMPI PUSH2 0x5A1 PUSH2 0x47A JUMP JUMPDEST JUMPDEST SWAP3 SWAP2 POP POP JUMP INVALID LOG2 PUSH5 0x6970667358 0x22 SLT KECCAK256 PUSH9 0xA2FBA9251EF3A0FDAA PUSH9 0xB831DD57A86F869F5E PUSH4 0x8AF756C8 0xC1 0xCC LOG0 DIV DUP11 DUP7 REVERT PUSH5 0x736F6C6343 STOP ADDMOD SGT STOP CALLER "},"methodIdentifiers":{"getHealed(Playable_Character,int256)":"071281e6","takesDamage(Playable_Character,int256)":"6ce06981","useEnergy(Playable_Character,int256)":"29a0ebb8"}}}}}