{
  "_format": "hh-sol-artifact-1",
  "contractName": "PlayerLib",
  "sourceName": "contracts/Playable_Character.sol",
  "abi": [
    {
      "inputs": [
        {
          "components": [
            {
              "internalType": "int256",
              "name": "healthPoints",
              "type": "int256"
            },
            {
              "internalType": "int256",
              "name": "energy",
              "type": "int256"
            },
            {
              "internalType": "int256",
              "name": "damage",
              "type": "int256"
            },
            {
              "internalType": "int256",
              "name": "strength",
              "type": "int256"
            },
            {
              "internalType": "int256",
              "name": "wisdom",
              "type": "int256"
            },
            {
              "internalType": "int256",
              "name": "agility",
              "type": "int256"
            },
            {
              "internalType": "int256",
              "name": "class",
              "type": "int256"
            }
          ],
          "internalType": "struct Playable_Character",
          "name": "character",
          "type": "tuple"
        },
        {
          "internalType": "int256",
          "name": "hitpoints",
          "type": "int256"
        }
      ],
      "name": "getHealed",
      "outputs": [
        {
          "components": [
            {
              "internalType": "int256",
              "name": "healthPoints",
              "type": "int256"
            },
            {
              "internalType": "int256",
              "name": "energy",
              "type": "int256"
            },
            {
              "internalType": "int256",
              "name": "damage",
              "type": "int256"
            },
            {
              "internalType": "int256",
              "name": "strength",
              "type": "int256"
            },
            {
              "internalType": "int256",
              "name": "wisdom",
              "type": "int256"
            },
            {
              "internalType": "int256",
              "name": "agility",
              "type": "int256"
            },
            {
              "internalType": "int256",
              "name": "class",
              "type": "int256"
            }
          ],
          "internalType": "struct Playable_Character",
          "name": "",
          "type": "tuple"
        }
      ],
      "stateMutability": "pure",
      "type": "function"
    },
    {
      "inputs": [
        {
          "components": [
            {
              "internalType": "int256",
              "name": "healthPoints",
              "type": "int256"
            },
            {
              "internalType": "int256",
              "name": "energy",
              "type": "int256"
            },
            {
              "internalType": "int256",
              "name": "damage",
              "type": "int256"
            },
            {
              "internalType": "int256",
              "name": "strength",
              "type": "int256"
            },
            {
              "internalType": "int256",
              "name": "wisdom",
              "type": "int256"
            },
            {
              "internalType": "int256",
              "name": "agility",
              "type": "int256"
            },
            {
              "internalType": "int256",
              "name": "class",
              "type": "int256"
            }
          ],
          "internalType": "struct Playable_Character",
          "name": "character",
          "type": "tuple"
        },
        {
          "internalType": "int256",
          "name": "hitpoints",
          "type": "int256"
        }
      ],
      "name": "takesDamage",
      "outputs": [
        {
          "components": [
            {
              "internalType": "int256",
              "name": "healthPoints",
              "type": "int256"
            },
            {
              "internalType": "int256",
              "name": "energy",
              "type": "int256"
            },
            {
              "internalType": "int256",
              "name": "damage",
              "type": "int256"
            },
            {
              "internalType": "int256",
              "name": "strength",
              "type": "int256"
            },
            {
              "internalType": "int256",
              "name": "wisdom",
              "type": "int256"
            },
            {
              "internalType": "int256",
              "name": "agility",
              "type": "int256"
            },
            {
              "internalType": "int256",
              "name": "class",
              "type": "int256"
            }
          ],
          "internalType": "struct Playable_Character",
          "name": "",
          "type": "tuple"
        }
      ],
      "stateMutability": "pure",
      "type": "function"
    },
    {
      "inputs": [
        {
          "components": [
            {
              "internalType": "int256",
              "name": "healthPoints",
              "type": "int256"
            },
            {
              "internalType": "int256",
              "name": "energy",
              "type": "int256"
            },
            {
              "internalType": "int256",
              "name": "damage",
              "type": "int256"
            },
            {
              "internalType": "int256",
              "name": "strength",
              "type": "int256"
            },
            {
              "internalType": "int256",
              "name": "wisdom",
              "type": "int256"
            },
            {
              "internalType": "int256",
              "name": "agility",
              "type": "int256"
            },
            {
              "internalType": "int256",
              "name": "class",
              "type": "int256"
            }
          ],
          "internalType": "struct Playable_Character",
          "name": "character",
          "type": "tuple"
        },
        {
          "internalType": "int256",
          "name": "energy_spent",
          "type": "int256"
        }
      ],
      "name": "useEnergy",
      "outputs": [
        {
          "components": [
            {
              "internalType": "int256",
              "name": "healthPoints",
              "type": "int256"
            },
            {
              "internalType": "int256",
              "name": "energy",
              "type": "int256"
            },
            {
              "internalType": "int256",
              "name": "damage",
              "type": "int256"
            },
            {
              "internalType": "int256",
              "name": "strength",
              "type": "int256"
            },
            {
              "internalType": "int256",
              "name": "wisdom",
              "type": "int256"
            },
            {
              "internalType": "int256",
              "name": "agility",
              "type": "int256"
            },
            {
              "internalType": "int256",
              "name": "class",
              "type": "int256"
            }
          ],
          "internalType": "struct Playable_Character",
          "name": "",
          "type": "tuple"
        }
      ],
      "stateMutability": "pure",
      "type": "function"
    }
  ],
  "bytecode": "0x6105de610053600b82828239805160001a607314610046577f4e487b7100000000000000000000000000000000000000000000000000000000600052600060045260246000fd5b30600052607381538281f3fe730000000000000000000000000000000000000000301460806040526004361061004b5760003560e01c8063071281e61461005057806329a0ebb8146100805780636ce06981146100b0575b600080fd5b61006a60048036038101906100659190610381565b6100e0565b604051610077919061045f565b60405180910390f35b61009a60048036038101906100959190610381565b610137565b6040516100a7919061045f565b60405180910390f35b6100ca60048036038101906100c59190610381565b610161565b6040516100d7919061045f565b60405180910390f35b6100e86101ba565b6000600584606001516100fb91906104a9565b9050828460000181815161010f9190610521565b91508181525050808460000151131561012d57808460000181815250505b8391505092915050565b61013f6101ba565b81836020018181516101519190610565565b9150818152505082905092915050565b6101696101ba565b61018082846000015161019290919063ffffffff16565b83600001818152505082905092915050565b6000828213156101a557600090506101b4565b81836101b19190610565565b90505b92915050565b6040518060e00160405280600081526020016000815260200160008152602001600081526020016000815260200160008152602001600081525090565b6000604051905090565b600080fd5b600080fd5b6000601f19601f8301169050919050565b7f4e487b7100000000000000000000000000000000000000000000000000000000600052604160045260246000fd5b6102548261020b565b810181811067ffffffffffffffff821117156102735761027261021c565b5b80604052505050565b60006102866101f7565b9050610292828261024b565b919050565b6000819050919050565b6102aa81610297565b81146102b557600080fd5b50565b6000813590506102c7816102a1565b92915050565b600060e082840312156102e3576102e2610206565b5b6102ed60e061027c565b905060006102fd848285016102b8565b6000830152506020610311848285016102b8565b6020830152506040610325848285016102b8565b6040830152506060610339848285016102b8565b606083015250608061034d848285016102b8565b60808301525060a0610361848285016102b8565b60a08301525060c0610375848285016102b8565b60c08301525092915050565b600080610100838503121561039957610398610201565b5b60006103a7858286016102cd565b92505060e06103b8858286016102b8565b9150509250929050565b6103cb81610297565b82525050565b60e0820160008201516103e760008501826103c2565b5060208201516103fa60208501826103c2565b50604082015161040d60408501826103c2565b50606082015161042060608501826103c2565b50608082015161043360808501826103c2565b5060a082015161044660a08501826103c2565b5060c082015161045960c08501826103c2565b50505050565b600060e08201905061047460008301846103d1565b92915050565b7f4e487b7100000000000000000000000000000000000000000000000000000000600052601160045260246000fd5b60006104b482610297565b91506104bf83610297565b92508282026104cd81610297565b91507f800000000000000000000000000000000000000000000000000000000000000084146000841216156105055761050461047a565b5b828205841483151761051a5761051961047a565b5b5092915050565b600061052c82610297565b915061053783610297565b92508282019050828112156000831216838212600084121516171561055f5761055e61047a565b5b92915050565b600061057082610297565b915061057b83610297565b92508282039050818112600084121682821360008512151617156105a2576105a161047a565b5b9291505056fea264697066735822122068a2fba9251ef3a0fdaa68b831dd57a86f869f5e638af756c8c1cca0048a86fd64736f6c63430008130033",
  "linkReferences": {},
  "deployedLinkReferences": {}
}