{
  "_format": "hh-sol-artifact-1",
  "contractName": "EnemyLib",
  "sourceName": "contracts/Enemy.sol",
  "abi": [
    {
      "inputs": [
        {
          "components": [
            {
              "internalType": "int256",
              "name": "healthPoints",
              "type": "int256"
            },
            {
              "internalType": "int256",
              "name": "damage",
              "type": "int256"
            }
          ],
          "internalType": "struct Enemy",
          "name": "enemy",
          "type": "tuple"
        }
      ],
      "name": "isDefeated",
      "outputs": [
        {
          "internalType": "bool",
          "name": "",
          "type": "bool"
        }
      ],
      "stateMutability": "pure",
      "type": "function"
    },
    {
      "inputs": [
        {
          "components": [
            {
              "internalType": "int256",
              "name": "healthPoints",
              "type": "int256"
            },
            {
              "internalType": "int256",
              "name": "damage",
              "type": "int256"
            }
          ],
          "internalType": "struct Enemy",
          "name": "enemy",
          "type": "tuple"
        },
        {
          "internalType": "int256",
          "name": "damage",
          "type": "int256"
        }
      ],
      "name": "takesDamage",
      "outputs": [
        {
          "components": [
            {
              "internalType": "int256",
              "name": "healthPoints",
              "type": "int256"
            },
            {
              "internalType": "int256",
              "name": "damage",
              "type": "int256"
            }
          ],
          "internalType": "struct Enemy",
          "name": "updatedEnemy",
          "type": "tuple"
        }
      ],
      "stateMutability": "pure",
      "type": "function"
    }
  ],
  "bytecode": "0x6103f2610053600b82828239805160001a607314610046577f4e487b7100000000000000000000000000000000000000000000000000000000600052600060045260246000fd5b30600052607381538281f3fe73000000000000000000000000000000000000000030146080604052600436106100405760003560e01c8063a4f7f96c14610045578063f5a0263714610075575b600080fd5b61005f600480360381019061005a919061024e565b6100a5565b60405161006c91906102cc565b60405180910390f35b61008f600480360381019061008a91906102e7565b6100d6565b60405161009c919061032f565b60405180910390f35b6100ad61010e565b6100c48284600001516100e690919063ffffffff16565b83600001818152505082905092915050565b6000808260000151149050919050565b6000828213156100f95760009050610108565b81836101059190610379565b90505b92915050565b604051806040016040528060008152602001600081525090565b6000604051905090565b600080fd5b600080fd5b6000601f19601f8301169050919050565b7f4e487b7100000000000000000000000000000000000000000000000000000000600052604160045260246000fd5b6101858261013c565b810181811067ffffffffffffffff821117156101a4576101a361014d565b5b80604052505050565b60006101b7610128565b90506101c3828261017c565b919050565b6000819050919050565b6101db816101c8565b81146101e657600080fd5b50565b6000813590506101f8816101d2565b92915050565b60006040828403121561021457610213610137565b5b61021e60406101ad565b9050600061022e848285016101e9565b6000830152506020610242848285016101e9565b60208301525092915050565b6000806060838503121561026557610264610132565b5b6000610273858286016101fe565b9250506040610284858286016101e9565b9150509250929050565b610297816101c8565b82525050565b6040820160008201516102b3600085018261028e565b5060208201516102c6602085018261028e565b50505050565b60006040820190506102e1600083018461029d565b92915050565b6000604082840312156102fd576102fc610132565b5b600061030b848285016101fe565b91505092915050565b60008115159050919050565b61032981610314565b82525050565b60006020820190506103446000830184610320565b92915050565b7f4e487b7100000000000000000000000000000000000000000000000000000000600052601160045260246000fd5b6000610384826101c8565b915061038f836101c8565b92508282039050818112600084121682821360008512151617156103b6576103b561034a565b5b9291505056fea264697066735822122065a4d6d0d2388dd0a7fca92d3f56a9593b7116af327653e4927538e9402a2e4464736f6c63430008130033",
  "linkReferences": {},
  "deployedLinkReferences": {}
}