{
  "_format": "hh-sol-artifact-1",
  "contractName": "Game",
  "sourceName": "contracts/Game.sol",
  "abi": [
    {
      "inputs": [],
      "stateMutability": "nonpayable",
      "type": "constructor"
    },
    {
      "anonymous": false,
      "inputs": [],
      "name": "EnemyDefeated",
      "type": "event"
    },
    {
      "anonymous": false,
      "inputs": [],
      "name": "GameStarted",
      "type": "event"
    },
    {
      "anonymous": false,
      "inputs": [],
      "name": "NewEnemyCreated",
      "type": "event"
    },
    {
      "anonymous": false,
      "inputs": [],
      "name": "NewGameCreated",
      "type": "event"
    },
    {
      "anonymous": false,
      "inputs": [],
      "name": "NewPlayerCreated",
      "type": "event"
    },
    {
      "inputs": [],
      "name": "attackEnemy",
      "outputs": [],
      "stateMutability": "nonpayable",
      "type": "function"
    },
    {
      "inputs": [
        {
          "internalType": "address",
          "name": "player",
          "type": "address"
        }
      ],
      "name": "attackPlayer",
      "outputs": [],
      "stateMutability": "nonpayable",
      "type": "function"
    },
    {
      "inputs": [
        {
          "internalType": "int256",
          "name": "classInput",
          "type": "int256"
        }
      ],
      "name": "createCharacter",
      "outputs": [],
      "stateMutability": "nonpayable",
      "type": "function"
    },
    {
      "inputs": [
        {
          "internalType": "int256",
          "name": "healthPoints",
          "type": "int256"
        },
        {
          "internalType": "int256",
          "name": "damage",
          "type": "int256"
        }
      ],
      "name": "createEnemy",
      "outputs": [],
      "stateMutability": "nonpayable",
      "type": "function"
    },
    {
      "inputs": [],
      "name": "enemy",
      "outputs": [
        {
          "internalType": "int256",
          "name": "healthPoints",
          "type": "int256"
        },
        {
          "internalType": "int256",
          "name": "damage",
          "type": "int256"
        }
      ],
      "stateMutability": "view",
      "type": "function"
    },
    {
      "inputs": [],
      "name": "gameMaster",
      "outputs": [
        {
          "internalType": "address",
          "name": "",
          "type": "address"
        }
      ],
      "stateMutability": "view",
      "type": "function"
    },
    {
      "inputs": [],
      "name": "gameStage",
      "outputs": [
        {
          "internalType": "enum Game.GameStage",
          "name": "",
          "type": "uint8"
        }
      ],
      "stateMutability": "view",
      "type": "function"
    },
    {
      "inputs": [
        {
          "internalType": "address",
          "name": "myAddress",
          "type": "address"
        }
      ],
      "name": "getPlayer",
      "outputs": [
        {
          "components": [
            {
              "internalType": "address",
              "name": "id",
              "type": "address"
            },
            {
              "components": [
                {
                  "internalType": "int256",
                  "name": "healthPoints",
                  "type": "int256"
                },
                {
                  "internalType": "int256",
                  "name": "energy",
                  "type": "int256"
                },
                {
                  "internalType": "int256",
                  "name": "damage",
                  "type": "int256"
                },
                {
                  "internalType": "int256",
                  "name": "strength",
                  "type": "int256"
                },
                {
                  "internalType": "int256",
                  "name": "wisdom",
                  "type": "int256"
                },
                {
                  "internalType": "int256",
                  "name": "agility",
                  "type": "int256"
                },
                {
                  "internalType": "int256",
                  "name": "class",
                  "type": "int256"
                }
              ],
              "internalType": "struct Playable_Character",
              "name": "character",
              "type": "tuple"
            },
            {
              "components": [
                {
                  "internalType": "int256",
                  "name": "healthPoints",
                  "type": "int256"
                },
                {
                  "internalType": "int256",
                  "name": "damage",
                  "type": "int256"
                }
              ],
              "internalType": "struct Enemy",
              "name": "enemy",
              "type": "tuple"
            },
            {
              "internalType": "uint256",
              "name": "turnTime",
              "type": "uint256"
            }
          ],
          "internalType": "struct Game.Player",
          "name": "",
          "type": "tuple"
        }
      ],
      "stateMutability": "view",
      "type": "function"
    },
    {
      "inputs": [],
      "name": "getPlayerListLength",
      "outputs": [
        {
          "internalType": "uint256",
          "name": "",
          "type": "uint256"
        }
      ],
      "stateMutability": "view",
      "type": "function"
    },
    {
      "inputs": [
        {
          "internalType": "address",
          "name": "player",
          "type": "address"
        }
      ],
      "name": "healPlayer",
      "outputs": [],
      "stateMutability": "nonpayable",
      "type": "function"
    },
    {
      "inputs": [
        {
          "internalType": "uint256",
          "name": "",
          "type": "uint256"
        }
      ],
      "name": "playerList",
      "outputs": [
        {
          "internalType": "address",
          "name": "",
          "type": "address"
        }
      ],
      "stateMutability": "view",
      "type": "function"
    },
    {
      "inputs": [
        {
          "internalType": "address",
          "name": "",
          "type": "address"
        }
      ],
      "name": "players",
      "outputs": [
        {
          "internalType": "address",
          "name": "id",
          "type": "address"
        },
        {
          "components": [
            {
              "internalType": "int256",
              "name": "healthPoints",
              "type": "int256"
            },
            {
              "internalType": "int256",
              "name": "energy",
              "type": "int256"
            },
            {
              "internalType": "int256",
              "name": "damage",
              "type": "int256"
            },
            {
              "internalType": "int256",
              "name": "strength",
              "type": "int256"
            },
            {
              "internalType": "int256",
              "name": "wisdom",
              "type": "int256"
            },
            {
              "internalType": "int256",
              "name": "agility",
              "type": "int256"
            },
            {
              "internalType": "int256",
              "name": "class",
              "type": "int256"
            }
          ],
          "internalType": "struct Playable_Character",
          "name": "character",
          "type": "tuple"
        },
        {
          "components": [
            {
              "internalType": "int256",
              "name": "healthPoints",
              "type": "int256"
            },
            {
              "internalType": "int256",
              "name": "damage",
              "type": "int256"
            }
          ],
          "internalType": "struct Enemy",
          "name": "enemy",
          "type": "tuple"
        },
        {
          "internalType": "uint256",
          "name": "turnTime",
          "type": "uint256"
        }
      ],
      "stateMutability": "view",
      "type": "function"
    },
    {
      "inputs": [],
      "name": "turnIndex",
      "outputs": [
        {
          "internalType": "uint256",
          "name": "",
          "type": "uint256"
        }
      ],
      "stateMutability": "view",
      "type": "function"
    }
  ],
  "bytecode": "0x608060405260006002553480156200001657600080fd5b5033600360016101000a81548173ffffffffffffffffffffffffffffffffffffffff021916908373ffffffffffffffffffffffffffffffffffffffff1602179055506000600360006101000a81548160ff02191690836004811115620000815762000080620000b8565b5b02179055507f3d9116c57b96f3053eaf908085a2d7d4f8d5514e28fe0dae24b0ff73fe7dbe0e60405160405180910390a1620000e7565b7f4e487b7100000000000000000000000000000000000000000000000000000000600052602160045260246000fd5b6132d180620000f76000396000f3fe608060405234801561001057600080fd5b50600436106100cf5760003560e01c806367f9453c1161008c578063bdf84ae711610066578063bdf84ae7146101ed578063cdb34cc91461020b578063e2eb41ff14610229578063fc16f8911461025c576100cf565b806367f9453c14610197578063ae6d9073146101a1578063b0a2f683146101d1576100cf565b8063185f2e41146100d45780634585899e146100f357806350c5685b146101115780635590c1311461012f5780635c12cd4b1461014b5780635dc22cce1461017b575b600080fd5b6100dc610278565b6040516100ea929190611f95565b60405180910390f35b6100fb61028a565b6040516101089190611fd7565b60405180910390f35b610119610297565b6040516101269190612069565b60405180910390f35b610149600480360381019061014491906120bf565b6102aa565b005b6101656004803603810190610160919061214a565b610a94565b60405161017291906122b9565b60405180910390f35b6101956004803603810190610190919061214a565b610bcf565b005b61019f610f8c565b005b6101bb60048036038101906101b69190612301565b611286565b6040516101c8919061233d565b60405180910390f35b6101eb60048036038101906101e69190612358565b6112c5565b005b6101f5611671565b604051610202919061233d565b60405180910390f35b610213611697565b6040516102209190611fd7565b60405180910390f35b610243600480360381019061023e919061214a565b61169d565b6040516102539493929190612455565b60405180910390f35b6102766004803603810190610271919061214a565b61175b565b005b60008060000154908060010154905082565b6000600580549050905090565b600360009054906101000a900460ff1681565b600081121580156102bb5750600381125b6102fa576040517f08c379a00000000000000000000000000000000000000000000000000000000081526004016102f190612520565b60405180910390fd5b6001600481111561030e5761030d611ff2565b5b600360009054906101000a900460ff1660048111156103305761032f611ff2565b5b14610370576040517f08c379a0000000000000000000000000000000000000000000000000000000008152600401610367906125b2565b60405180910390fd5b3373ffffffffffffffffffffffffffffffffffffffff16600360019054906101000a900473ffffffffffffffffffffffffffffffffffffffff1673ffffffffffffffffffffffffffffffffffffffff1603610400576040517f08c379a00000000000000000000000000000000000000000000000000000000081526004016103f790612644565b60405180910390fd5b60005b6005805490508110156105f657600460006005838154811061042857610427612664565b5b9060005260206000200160009054906101000a900473ffffffffffffffffffffffffffffffffffffffff1673ffffffffffffffffffffffffffffffffffffffff1673ffffffffffffffffffffffffffffffffffffffff16815260200190815260200160002060000160009054906101000a900473ffffffffffffffffffffffffffffffffffffffff1673ffffffffffffffffffffffffffffffffffffffff163373ffffffffffffffffffffffffffffffffffffffff160361051e576040517f08c379a0000000000000000000000000000000000000000000000000000000008152600401610515906126df565b60405180910390fd5b600460006005838154811061053657610535612664565b5b9060005260206000200160009054906101000a900473ffffffffffffffffffffffffffffffffffffffff1673ffffffffffffffffffffffffffffffffffffffff1673ffffffffffffffffffffffffffffffffffffffff1681526020019081526020016000206001016006015482036105e3576040517f08c379a00000000000000000000000000000000000000000000000000000000081526004016105da90612771565b60405180910390fd5b80806105ee906127c0565b915050610403565b5033600460003373ffffffffffffffffffffffffffffffffffffffff1673ffffffffffffffffffffffffffffffffffffffff16815260200190815260200160002060000160006101000a81548173ffffffffffffffffffffffffffffffffffffffff021916908373ffffffffffffffffffffffffffffffffffffffff1602179055506000810361076d576000601990506000600490506000600990506000600590506000600290506000600390506040518060e0016040528087815260200186815260200185815260200184815260200183815260200182815260200188815250600460003373ffffffffffffffffffffffffffffffffffffffff1673ffffffffffffffffffffffffffffffffffffffff168152602001908152602001600020600101600082015181600001556020820151816001015560408201518160020155606082015181600301556080820151816004015560a0820151816005015560c0820151816006015590505050505050505061094c565b60018103610862576000600f90506000600a90506000600690506000600390506000600590506000600290506040518060e0016040528087815260200186815260200185815260200184815260200183815260200182815260200188815250600460003373ffffffffffffffffffffffffffffffffffffffff1673ffffffffffffffffffffffffffffffffffffffff168152602001908152602001600020600101600082015181600001556020820151816001015560408201518160020155606082015181600301556080820151816004015560a0820151816005015560c0820151816006015590505050505050505061094b565b6000600a90506000600690506000600f90506000600290506000600390506000600590506040518060e0016040528087815260200186815260200185815260200184815260200183815260200182815260200188815250600460003373ffffffffffffffffffffffffffffffffffffffff1673ffffffffffffffffffffffffffffffffffffffff168152602001908152602001600020600101600082015181600001556020820151816001015560408201518160020155606082015181600301556080820151816004015560a0820151816005015560c082015181600601559050505050505050505b5b6005339080600181540180825580915050600190039060005260206000200160009091909190916101000a81548173ffffffffffffffffffffffffffffffffffffffff021916908373ffffffffffffffffffffffffffffffffffffffff160217905550600254600460003373ffffffffffffffffffffffffffffffffffffffff1673ffffffffffffffffffffffffffffffffffffffff168152602001908152602001600020600a0181905550610a00611ccb565b600360058054905003610a65576002600360006101000a81548160ff02191690836004811115610a3357610a32611ff2565b5b02179055507f762f260439bb4be3ef6e4dc2786e2e7bd187d3d80b79057d7a424fe98563e33560405160405180910390a15b7f4e087f705c6e5e23534f29a75f7ae5e8cb1e71e77004a804e00bac6f0b63f53960405160405180910390a150565b610a9c611edb565b600460008373ffffffffffffffffffffffffffffffffffffffff1673ffffffffffffffffffffffffffffffffffffffff1681526020019081526020016000206040518060800160405290816000820160009054906101000a900473ffffffffffffffffffffffffffffffffffffffff1673ffffffffffffffffffffffffffffffffffffffff1673ffffffffffffffffffffffffffffffffffffffff168152602001600182016040518060e0016040529081600082015481526020016001820154815260200160028201548152602001600382015481526020016004820154815260200160058201548152602001600682015481525050815260200160088201604051806040016040529081600082015481526020016001820154815250508152602001600a820154815250509050919050565b60026004811115610be357610be2611ff2565b5b600360009054906101000a900460ff166004811115610c0557610c04611ff2565b5b14610c45576040517f08c379a0000000000000000000000000000000000000000000000000000000008152600401610c3c9061287a565b60405180910390fd5b600360019054906101000a900473ffffffffffffffffffffffffffffffffffffffff1673ffffffffffffffffffffffffffffffffffffffff163373ffffffffffffffffffffffffffffffffffffffff1614610cd5576040517f08c379a0000000000000000000000000000000000000000000000000000000008152600401610ccc9061290c565b60405180910390fd5b6000600460008373ffffffffffffffffffffffffffffffffffffffff1673ffffffffffffffffffffffffffffffffffffffff1681526020019081526020016000206001016000015403610d5d576040517f08c379a0000000000000000000000000000000000000000000000000000000008152600401610d549061299e565b60405180910390fd5b600460003373ffffffffffffffffffffffffffffffffffffffff1673ffffffffffffffffffffffffffffffffffffffff168152602001908152602001600020600a015460025414610de3576040517f08c379a0000000000000000000000000000000000000000000000000000000008152600401610dda90612a0a565b60405180910390fd5b600460008273ffffffffffffffffffffffffffffffffffffffff1673ffffffffffffffffffffffffffffffffffffffff1681526020019081526020016000206001016040518060e001604052908160008201548152602001600182015481526020016002820154815260200160038201548152602001600482015481526020016005820154815260200160068201548152505073__$460f869e0d8a780bd0c010e3047a23488b$__636ce0698190916000600101546040518363ffffffff1660e01b8152600401610eb5929190612ad6565b60e060405180830381865af4158015610ed2573d6000803e3d6000fd5b505050506040513d601f19601f82011682018060405250810190610ef69190612c5a565b600460008373ffffffffffffffffffffffffffffffffffffffff1673ffffffffffffffffffffffffffffffffffffffff168152602001908152602001600020600101600082015181600001556020820151816001015560408201518160020155606082015181600301556080820151816004015560a0820151816005015560c08201518160060155905050610f89611ccb565b50565b60026004811115610fa057610f9f611ff2565b5b600360009054906101000a900460ff166004811115610fc257610fc1611ff2565b5b14611002576040517f08c379a0000000000000000000000000000000000000000000000000000000008152600401610ff990612cf9565b60405180910390fd5b600460003373ffffffffffffffffffffffffffffffffffffffff1673ffffffffffffffffffffffffffffffffffffffff168152602001908152602001600020600a015460025414611088576040517f08c379a000000000000000000000000000000000000000000000000000000000815260040161107f90612d65565b60405180910390fd5b6000600460003373ffffffffffffffffffffffffffffffffffffffff1673ffffffffffffffffffffffffffffffffffffffff16815260200190815260200160002060010160020154905060006040518060400160405290816000820154815260200160018201548152505073__$9d8d72571510431b49140d1cfd7809c45a$__63a4f7f96c9091836040518363ffffffff1660e01b815260040161112d929190612db4565b6040805180830381865af4158015611149573d6000803e3d6000fd5b505050506040513d601f19601f8201168201806040525081019061116d9190612e2d565b60008082015181600001556020820151816001015590505060006040518060400160405290816000820154815260200160018201548152505073__$9d8d72571510431b49140d1cfd7809c45a$__63f5a0263790916040518263ffffffff1660e01b81526004016111de9190612e5a565b602060405180830381865af41580156111fb573d6000803e3d6000fd5b505050506040513d601f19601f8201168201806040525081019061121f9190612ead565b1561127b577f6d39fdff023acc29519c1527ce9cae344602b60152685ebf090f40cf90c9303160405160405180910390a160038060006101000a81548160ff0219169083600481111561127557611274611ff2565b5b02179055505b611283611ccb565b50565b6005818154811061129657600080fd5b906000526020600020016000915054906101000a900473ffffffffffffffffffffffffffffffffffffffff1681565b600080600001541480156112dd575060008060010154145b61131c576040517f08c379a000000000000000000000000000000000000000000000000000000000815260040161131390612f4c565b60405180910390fd5b600060048111156113305761132f611ff2565b5b600360009054906101000a900460ff16600481111561135257611351611ff2565b5b14611392576040517f08c379a000000000000000000000000000000000000000000000000000000000815260040161138990612fde565b60405180910390fd5b600360019054906101000a900473ffffffffffffffffffffffffffffffffffffffff1673ffffffffffffffffffffffffffffffffffffffff163373ffffffffffffffffffffffffffffffffffffffff1614611422576040517f08c379a000000000000000000000000000000000000000000000000000000000815260040161141990613070565b60405180910390fd5b604051806040016040528083815260200182815250600080820151816000015560208201518160010155905050600360019054906101000a900473ffffffffffffffffffffffffffffffffffffffff1660046000600360019054906101000a900473ffffffffffffffffffffffffffffffffffffffff1673ffffffffffffffffffffffffffffffffffffffff1673ffffffffffffffffffffffffffffffffffffffff16815260200190815260200160002060000160006101000a81548173ffffffffffffffffffffffffffffffffffffffff021916908373ffffffffffffffffffffffffffffffffffffffff160217905550600060046000600360019054906101000a900473ffffffffffffffffffffffffffffffffffffffff1673ffffffffffffffffffffffffffffffffffffffff1673ffffffffffffffffffffffffffffffffffffffff168152602001908152602001600020600801600082015481600001556001820154816001015590505060025460046000600360019054906101000a900473ffffffffffffffffffffffffffffffffffffffff1673ffffffffffffffffffffffffffffffffffffffff1673ffffffffffffffffffffffffffffffffffffffff168152602001908152602001600020600a018190555060016002600082825461160f9190613090565b925050819055507f230253d2fd48a98728fd235a473bd55af9647c38997732a52d96a130328ae05660405160405180910390a16001600360006101000a81548160ff0219169083600481111561166857611667611ff2565b5b02179055505050565b600360019054906101000a900473ffffffffffffffffffffffffffffffffffffffff1681565b60025481565b60046020528060005260406000206000915090508060000160009054906101000a900473ffffffffffffffffffffffffffffffffffffffff1690806001016040518060e00160405290816000820154815260200160018201548152602001600282015481526020016003820154815260200160048201548152602001600582015481526020016006820154815250509080600801604051806040016040529081600082015481526020016001820154815250509080600a0154905084565b600460003373ffffffffffffffffffffffffffffffffffffffff1673ffffffffffffffffffffffffffffffffffffffff168152602001908152602001600020600a0154600254146117e1576040517f08c379a00000000000000000000000000000000000000000000000000000000081526004016117d890612d65565b60405180910390fd5b6000600460003373ffffffffffffffffffffffffffffffffffffffff1673ffffffffffffffffffffffffffffffffffffffff1681526020019081526020016000206008016000015414801561187b57506000600460003373ffffffffffffffffffffffffffffffffffffffff1673ffffffffffffffffffffffffffffffffffffffff16815260200190815260200160002060080160010154145b6118ba576040517f08c379a00000000000000000000000000000000000000000000000000000000081526004016118b190613136565b60405180910390fd5b6002600460003373ffffffffffffffffffffffffffffffffffffffff1673ffffffffffffffffffffffffffffffffffffffff1681526020019081526020016000206001016001015413611942576040517f08c379a0000000000000000000000000000000000000000000000000000000008152600401611939906131c8565b60405180910390fd5b600460003373ffffffffffffffffffffffffffffffffffffffff1673ffffffffffffffffffffffffffffffffffffffff1681526020019081526020016000206001016040518060e001604052908160008201548152602001600182015481526020016002820154815260200160038201548152602001600482015481526020016005820154815260200160068201548152505073__$460f869e0d8a780bd0c010e3047a23488b$__6329a0ebb8909160026040518363ffffffff1660e01b8152600401611a1092919061322d565b60e060405180830381865af4158015611a2d573d6000803e3d6000fd5b505050506040513d601f19601f82011682018060405250810190611a519190612c5a565b600460003373ffffffffffffffffffffffffffffffffffffffff1673ffffffffffffffffffffffffffffffffffffffff168152602001908152602001600020600101600082015181600001556020820151816001015560408201518160020155606082015181600301556080820151816004015560a0820151816005015560c082015181600601559050506000600460003373ffffffffffffffffffffffffffffffffffffffff1673ffffffffffffffffffffffffffffffffffffffff168152602001908152602001600020600101600401549050600460008373ffffffffffffffffffffffffffffffffffffffff1673ffffffffffffffffffffffffffffffffffffffff1681526020019081526020016000206001016040518060e001604052908160008201548152602001600182015481526020016002820154815260200160038201548152602001600482015481526020016005820154815260200160068201548152505073__$460f869e0d8a780bd0c010e3047a23488b$__63071281e69091836040518363ffffffff1660e01b8152600401611bf3929190612ad6565b60e060405180830381865af4158015611c10573d6000803e3d6000fd5b505050506040513d601f19601f82011682018060405250810190611c349190612c5a565b600460008473ffffffffffffffffffffffffffffffffffffffff1673ffffffffffffffffffffffffffffffffffffffff168152602001908152602001600020600101600082015181600001556020820151816001015560408201518160020155606082015181600301556080820151816004015560a0820151816005015560c08201518160060155905050611cc7611ccb565b5050565b600060036004811115611ce157611ce0611ff2565b5b600360009054906101000a900460ff166004811115611d0357611d02611ff2565b5b03611d0e5750611ed9565b600160026000828254611d219190613090565b9250508190555060005b600580549050811015611e8e5760006004600060058481548110611d5257611d51612664565b5b9060005260206000200160009054906101000a900473ffffffffffffffffffffffffffffffffffffffff1673ffffffffffffffffffffffffffffffffffffffff1673ffffffffffffffffffffffffffffffffffffffff16815260200190815260200160002060010160000154148015611e4c57506002546004600060058481548110611de157611de0612664565b5b9060005260206000200160009054906101000a900473ffffffffffffffffffffffffffffffffffffffff1673ffffffffffffffffffffffffffffffffffffffff1673ffffffffffffffffffffffffffffffffffffffff168152602001908152602001600020600a0154145b15611e7b57600160026000828254611e649190613090565b92505081905550600182611e789190613257565b91505b8080611e86906127c0565b915050611d2b565b5060038103611ec3576004600360006101000a81548160ff02191690836004811115611ebd57611ebc611ff2565b5b02179055505b60036002541115611ed75760006002819055505b505b565b6040518060800160405280600073ffffffffffffffffffffffffffffffffffffffff168152602001611f0b611f25565b8152602001611f18611f62565b8152602001600081525090565b6040518060e00160405280600081526020016000815260200160008152602001600081526020016000815260200160008152602001600081525090565b604051806040016040528060008152602001600081525090565b6000819050919050565b611f8f81611f7c565b82525050565b6000604082019050611faa6000830185611f86565b611fb76020830184611f86565b9392505050565b6000819050919050565b611fd181611fbe565b82525050565b6000602082019050611fec6000830184611fc8565b92915050565b7f4e487b7100000000000000000000000000000000000000000000000000000000600052602160045260246000fd5b6005811061203257612031611ff2565b5b50565b600081905061204382612021565b919050565b600061205382612035565b9050919050565b61206381612048565b82525050565b600060208201905061207e600083018461205a565b92915050565b6000604051905090565b600080fd5b61209c81611f7c565b81146120a757600080fd5b50565b6000813590506120b981612093565b92915050565b6000602082840312156120d5576120d461208e565b5b60006120e3848285016120aa565b91505092915050565b600073ffffffffffffffffffffffffffffffffffffffff82169050919050565b6000612117826120ec565b9050919050565b6121278161210c565b811461213257600080fd5b50565b6000813590506121448161211e565b92915050565b6000602082840312156121605761215f61208e565b5b600061216e84828501612135565b91505092915050565b6121808161210c565b82525050565b61218f81611f7c565b82525050565b60e0820160008201516121ab6000850182612186565b5060208201516121be6020850182612186565b5060408201516121d16040850182612186565b5060608201516121e46060850182612186565b5060808201516121f76080850182612186565b5060a082015161220a60a0850182612186565b5060c082015161221d60c0850182612186565b50505050565b6040820160008201516122396000850182612186565b50602082015161224c6020850182612186565b50505050565b61225b81611fbe565b82525050565b610160820160008201516122786000850182612177565b50602082015161228b6020850182612195565b50604082015161229f610100850182612223565b5060608201516122b3610140850182612252565b50505050565b6000610160820190506122cf6000830184612261565b92915050565b6122de81611fbe565b81146122e957600080fd5b50565b6000813590506122fb816122d5565b92915050565b6000602082840312156123175761231661208e565b5b6000612325848285016122ec565b91505092915050565b6123378161210c565b82525050565b6000602082019050612352600083018461232e565b92915050565b6000806040838503121561236f5761236e61208e565b5b600061237d858286016120aa565b925050602061238e858286016120aa565b9150509250929050565b60e0820160008201516123ae6000850182612186565b5060208201516123c16020850182612186565b5060408201516123d46040850182612186565b5060608201516123e76060850182612186565b5060808201516123fa6080850182612186565b5060a082015161240d60a0850182612186565b5060c082015161242060c0850182612186565b50505050565b60408201600082015161243c6000850182612186565b50602082015161244f6020850182612186565b50505050565b60006101608201905061246b600083018761232e565b6124786020830186612398565b612486610100830185612426565b612494610140830184611fc8565b95945050505050565b600082825260208201905092915050565b7f496e76616c6964206f7074696f6e20666f7220636c617373212030203d20576160008201527f7272696f72207c2031203d204865616c6572207c2032203d2041726368657200602082015250565b600061250a603f8361249d565b9150612515826124ae565b604082019050919050565b60006020820190508181036000830152612539816124fd565b9050919050565b7f43616e277420637265617465206120506c6179657220696e207468697320676160008201527f6d65207374616765210000000000000000000000000000000000000000000000602082015250565b600061259c60298361249d565b91506125a782612540565b604082019050919050565b600060208201905081810360008301526125cb8161258f565b9050919050565b7f5468652047616d65204d61737465722063616e2774206a6f696e20617320612060008201527f506c617965722100000000000000000000000000000000000000000000000000602082015250565b600061262e60278361249d565b9150612639826125d2565b604082019050919050565b6000602082019050818103600083015261265d81612621565b9050919050565b7f4e487b7100000000000000000000000000000000000000000000000000000000600052603260045260246000fd5b7f596f7527726520616c726561647920696e207468652067616d65210000000000600082015250565b60006126c9601b8361249d565b91506126d482612693565b602082019050919050565b600060208201905081810360008301526126f8816126bc565b9050919050565b7f546865726520697320616c7265616479206120706c61796572207573696e672060008201527f7468617420636c61737321000000000000000000000000000000000000000000602082015250565b600061275b602b8361249d565b9150612766826126ff565b604082019050919050565b6000602082019050818103600083015261278a8161274e565b9050919050565b7f4e487b7100000000000000000000000000000000000000000000000000000000600052601160045260246000fd5b60006127cb82611fbe565b91507fffffffffffffffffffffffffffffffffffffffffffffffffffffffffffffffff82036127fd576127fc612791565b5b600182019050919050565b7f43616e206f6e6c792061747461636b206120706c61796572207768656e20746860008201527f652067616d652068617320616c72656164792073746172746564210000000000602082015250565b6000612864603b8361249d565b915061286f82612808565b604082019050919050565b6000602082019050818103600083015261289381612857565b9050919050565b7f4f6e6c79207468652047616d65204d61737465722063616e2061747461636b2060008201527f776974682074686520456e656d79210000000000000000000000000000000000602082015250565b60006128f6602f8361249d565b91506129018261289a565b604082019050919050565b60006020820190508181036000830152612925816128e9565b9050919050565b7f596f752063616e27742061747461636b206120706c617965722074686174206960008201527f7320616c72656164792064656665617465642100000000000000000000000000602082015250565b600061298860338361249d565b91506129938261292c565b604082019050919050565b600060208201905081810360008301526129b78161297b565b9050919050565b7f49742773206e6f742074686520456e656d79207475726e207965742100000000600082015250565b60006129f4601c8361249d565b91506129ff826129be565b602082019050919050565b60006020820190508181036000830152612a23816129e7565b9050919050565b612a3381611f7c565b82525050565b60e082016000820151612a4f6000850182612a2a565b506020820151612a626020850182612a2a565b506040820151612a756040850182612a2a565b506060820151612a886060850182612a2a565b506080820151612a9b6080850182612a2a565b5060a0820151612aae60a0850182612a2a565b5060c0820151612ac160c0850182612a2a565b50505050565b612ad081611f7c565b82525050565b600061010082019050612aec6000830185612a39565b612af960e0830184612ac7565b9392505050565b600080fd5b6000601f19601f8301169050919050565b7f4e487b7100000000000000000000000000000000000000000000000000000000600052604160045260246000fd5b612b4e82612b05565b810181811067ffffffffffffffff82111715612b6d57612b6c612b16565b5b80604052505050565b6000612b80612084565b9050612b8c8282612b45565b919050565b600081519050612ba081612093565b92915050565b600060e08284031215612bbc57612bbb612b00565b5b612bc660e0612b76565b90506000612bd684828501612b91565b6000830152506020612bea84828501612b91565b6020830152506040612bfe84828501612b91565b6040830152506060612c1284828501612b91565b6060830152506080612c2684828501612b91565b60808301525060a0612c3a84828501612b91565b60a08301525060c0612c4e84828501612b91565b60c08301525092915050565b600060e08284031215612c7057612c6f61208e565b5b6000612c7e84828501612ba6565b91505092915050565b7f43616e206f6e6c792061747461636b2074686520656e656d79207768656e207460008201527f68652067616d652068617320616c726561647920737461727465642100000000602082015250565b6000612ce3603c8361249d565b9150612cee82612c87565b604082019050919050565b60006020820190508181036000830152612d1281612cd6565b9050919050565b7f49742773206e6f7420796f7572207475726e2079657421000000000000000000600082015250565b6000612d4f60178361249d565b9150612d5a82612d19565b602082019050919050565b60006020820190508181036000830152612d7e81612d42565b9050919050565b604082016000820151612d9b6000850182612a2a565b506020820151612dae6020850182612a2a565b50505050565b6000606082019050612dc96000830185612d85565b612dd66040830184612ac7565b9392505050565b600060408284031215612df357612df2612b00565b5b612dfd6040612b76565b90506000612e0d84828501612b91565b6000830152506020612e2184828501612b91565b60208301525092915050565b600060408284031215612e4357612e4261208e565b5b6000612e5184828501612ddd565b91505092915050565b6000604082019050612e6f6000830184612d85565b92915050565b60008115159050919050565b612e8a81612e75565b8114612e9557600080fd5b50565b600081519050612ea781612e81565b92915050565b600060208284031215612ec357612ec261208e565b5b6000612ed184828501612e98565b91505092915050565b7f546865726520697320616c726561647920616e20656e656d792063726561746560008201527f6421000000000000000000000000000000000000000000000000000000000000602082015250565b6000612f3660228361249d565b9150612f4182612eda565b604082019050919050565b60006020820190508181036000830152612f6581612f29565b9050919050565b7f43616e27742063726561746520616e20656e656d7920696e207468697320676160008201527f6d65207374616765210000000000000000000000000000000000000000000000602082015250565b6000612fc860298361249d565b9150612fd382612f6c565b604082019050919050565b60006020820190508181036000830152612ff781612fbb565b9050919050565b7f4f6e6c79207468652067616d65206d61737465722063616e206372656174652060008201527f616e20456e656d79210000000000000000000000000000000000000000000000602082015250565b600061305a60298361249d565b915061306582612ffe565b604082019050919050565b600060208201905081810360008301526130898161304d565b9050919050565b600061309b82611fbe565b91506130a683611fbe565b92508282019050808211156130be576130bd612791565b5b92915050565b7f456e656d792063616e2774206865616c20706c617965727320616e642069747360008201527f656c662100000000000000000000000000000000000000000000000000000000602082015250565b600061312060248361249d565b915061312b826130c4565b604082019050919050565b6000602082019050818103600083015261314f81613113565b9050919050565b7f596f7520646f6e2774206861766520656e6f75676820656e6572677920746f2060008201527f6865616c2120456e6572677920436f7374203d20320000000000000000000000602082015250565b60006131b260358361249d565b91506131bd82613156565b604082019050919050565b600060208201905081810360008301526131e1816131a5565b9050919050565b6000819050919050565b6000819050919050565b600061321761321261320d846131e8565b6131f2565b611f7c565b9050919050565b613227816131fc565b82525050565b6000610100820190506132436000830185612a39565b61325060e083018461321e565b9392505050565b600061326282611f7c565b915061326d83611f7c565b92508282019050828112156000831216838212600084121516171561329557613294612791565b5b9291505056fea2646970667358221220aea6cb160edaeaf36f4ce2952253409618991e81ffefdc60bd45a18dfc9ab0bd64736f6c63430008130033",
  "linkReferences": {
    "contracts/Enemy.sol": {
      "EnemyLib": [
        {
          "length": 20,
          "start": 4588
        },
        {
          "length": 20,
          "start": 4767
        }
      ]
    },
    "contracts/Playable_Character.sol": {
      "PlayerLib": [
        {
          "length": 20,
          "start": 3951
        },
        {
          "length": 20,
          "start": 6862
        },
        {
          "length": 20,
          "start": 7346
        }
      ]
    }
  },
  "deployedLinkReferences": {
    "contracts/Enemy.sol": {
      "EnemyLib": [
        {
          "length": 20,
          "start": 4341
        },
        {
          "length": 20,
          "start": 4520
        }
      ]
    },
    "contracts/Playable_Character.sol": {
      "PlayerLib": [
        {
          "length": 20,
          "start": 3704
        },
        {
          "length": 20,
          "start": 6615
        },
        {
          "length": 20,
          "start": 7099
        }
      ]
    }
  }
}